{
  "abi": [
    {
      "inputs": [],
      "stateMutability": "nonpayable",
      "type": "constructor"
    },
    {
      "inputs": [
        {
          "internalType": "address",
          "name": "sender",
          "type": "address"
        },
        {
          "internalType": "uint256",
          "name": "tokenId",
          "type": "uint256"
        },
        {
          "internalType": "address",
          "name": "owner",
          "type": "address"
        }
      ],
      "name": "ERC721IncorrectOwner",
      "type": "error"
    },
    {
      "inputs": [
        {
          "internalType": "address",
          "name": "operator",
          "type": "address"
        },
        {
          "internalType": "uint256",
          "name": "tokenId",
          "type": "uint256"
        }
      ],
      "name": "ERC721InsufficientApproval",
      "type": "error"
    },
    {
      "inputs": [
        {
          "internalType": "address",
          "name": "approver",
          "type": "address"
        }
      ],
      "name": "ERC721InvalidApprover",
      "type": "error"
    },
    {
      "inputs": [
        {
          "internalType": "address",
          "name": "operator",
          "type": "address"
        }
      ],
      "name": "ERC721InvalidOperator",
      "type": "error"
    },
    {
      "inputs": [
        {
          "internalType": "address",
          "name": "owner",
          "type": "address"
        }
      ],
      "name": "ERC721InvalidOwner",
      "type": "error"
    },
    {
      "inputs": [
        {
          "internalType": "address",
          "name": "receiver",
          "type": "address"
        }
      ],
      "name": "ERC721InvalidReceiver",
      "type": "error"
    },
    {
      "inputs": [
        {
          "internalType": "address",
          "name": "sender",
          "type": "address"
        }
      ],
      "name": "ERC721InvalidSender",
      "type": "error"
    },
    {
      "inputs": [
        {
          "internalType": "uint256",
          "name": "tokenId",
          "type": "uint256"
        }
      ],
      "name": "ERC721NonexistentToken",
      "type": "error"
    },
    {
      "anonymous": false,
      "inputs": [
        {
          "indexed": true,
          "internalType": "address",
          "name": "owner",
          "type": "address"
        },
        {
          "indexed": true,
          "internalType": "address",
          "name": "approved",
          "type": "address"
        },
        {
          "indexed": true,
          "internalType": "uint256",
          "name": "tokenId",
          "type": "uint256"
        }
      ],
      "name": "Approval",
      "type": "event"
    },
    {
      "anonymous": false,
      "inputs": [
        {
          "indexed": true,
          "internalType": "address",
          "name": "owner",
          "type": "address"
        },
        {
          "indexed": true,
          "internalType": "address",
          "name": "operator",
          "type": "address"
        },
        {
          "indexed": false,
          "internalType": "bool",
          "name": "approved",
          "type": "bool"
        }
      ],
      "name": "ApprovalForAll",
      "type": "event"
    },
    {
      "anonymous": false,
      "inputs": [
        {
          "indexed": true,
          "internalType": "address",
          "name": "from",
          "type": "address"
        },
        {
          "indexed": true,
          "internalType": "address",
          "name": "to",
          "type": "address"
        },
        {
          "indexed": true,
          "internalType": "uint256",
          "name": "tokenId",
          "type": "uint256"
        }
      ],
      "name": "Transfer",
      "type": "event"
    },
    {
      "inputs": [
        {
          "internalType": "address",
          "name": "to",
          "type": "address"
        },
        {
          "internalType": "uint256",
          "name": "tokenId",
          "type": "uint256"
        }
      ],
      "name": "approve",
      "outputs": [],
      "stateMutability": "nonpayable",
      "type": "function"
    },
    {
      "inputs": [
        {
          "internalType": "address",
          "name": "owner",
          "type": "address"
        }
      ],
      "name": "balanceOf",
      "outputs": [
        {
          "internalType": "uint256",
          "name": "",
          "type": "uint256"
        }
      ],
      "stateMutability": "view",
      "type": "function"
    },
    {
      "inputs": [
        {
          "internalType": "uint256",
          "name": "tokenId",
          "type": "uint256"
        }
      ],
      "name": "getApproved",
      "outputs": [
        {
          "internalType": "address",
          "name": "",
          "type": "address"
        }
      ],
      "stateMutability": "view",
      "type": "function"
    },
    {
      "inputs": [
        {
          "internalType": "address",
          "name": "owner",
          "type": "address"
        },
        {
          "internalType": "address",
          "name": "operator",
          "type": "address"
        }
      ],
      "name": "isApprovedForAll",
      "outputs": [
        {
          "internalType": "bool",
          "name": "",
          "type": "bool"
        }
      ],
      "stateMutability": "view",
      "type": "function"
    },
    {
      "inputs": [],
      "name": "name",
      "outputs": [
        {
          "internalType": "string",
          "name": "",
          "type": "string"
        }
      ],
      "stateMutability": "view",
      "type": "function"
    },
    {
      "inputs": [
        {
          "internalType": "uint256",
          "name": "tokenId",
          "type": "uint256"
        }
      ],
      "name": "ownerOf",
      "outputs": [
        {
          "internalType": "address",
          "name": "",
          "type": "address"
        }
      ],
      "stateMutability": "view",
      "type": "function"
    },
    {
      "inputs": [
        {
          "internalType": "address",
          "name": "from",
          "type": "address"
        },
        {
          "internalType": "address",
          "name": "to",
          "type": "address"
        },
        {
          "internalType": "uint256",
          "name": "tokenId",
          "type": "uint256"
        }
      ],
      "name": "safeTransferFrom",
      "outputs": [],
      "stateMutability": "nonpayable",
      "type": "function"
    },
    {
      "inputs": [
        {
          "internalType": "address",
          "name": "from",
          "type": "address"
        },
        {
          "internalType": "address",
          "name": "to",
          "type": "address"
        },
        {
          "internalType": "uint256",
          "name": "tokenId",
          "type": "uint256"
        },
        {
          "internalType": "bytes",
          "name": "data",
          "type": "bytes"
        }
      ],
      "name": "safeTransferFrom",
      "outputs": [],
      "stateMutability": "nonpayable",
      "type": "function"
    },
    {
      "inputs": [
        {
          "internalType": "address",
          "name": "operator",
          "type": "address"
        },
        {
          "internalType": "bool",
          "name": "approved",
          "type": "bool"
        }
      ],
      "name": "setApprovalForAll",
      "outputs": [],
      "stateMutability": "nonpayable",
      "type": "function"
    },
    {
      "inputs": [
        {
          "internalType": "bytes4",
          "name": "interfaceId",
          "type": "bytes4"
        }
      ],
      "name": "supportsInterface",
      "outputs": [
        {
          "internalType": "bool",
          "name": "",
          "type": "bool"
        }
      ],
      "stateMutability": "view",
      "type": "function"
    },
    {
      "inputs": [
        {
          "internalType": "uint256",
          "name": "shapes_mask",
          "type": "uint256"
        },
        {
          "internalType": "uint256",
          "name": "num_shapes",
          "type": "uint256"
        }
      ],
      "name": "getShapes",
      "outputs": [
        {
          "internalType": "string",
          "name": "",
          "type": "string"
        }
      ],
      "stateMutability": "view",
      "type": "function"
    },
    {
      "inputs": [],
      "name": "svg",
      "outputs": [
        {
          "internalType": "string",
          "name": "",
          "type": "string"
        }
      ],
      "stateMutability": "view",
      "type": "function"
    },
    {
      "inputs": [],
      "name": "symbol",
      "outputs": [
        {
          "internalType": "string",
          "name": "",
          "type": "string"
        }
      ],
      "stateMutability": "view",
      "type": "function"
    },
    {
      "inputs": [
        {
          "internalType": "uint256",
          "name": "tokenId",
          "type": "uint256"
        }
      ],
      "name": "tokenURI",
      "outputs": [
        {
          "internalType": "string",
          "name": "",
          "type": "string"
        }
      ],
      "stateMutability": "view",
      "type": "function"
    },
    {
      "inputs": [
        {
          "internalType": "address",
          "name": "from",
          "type": "address"
        },
        {
          "internalType": "address",
          "name": "to",
          "type": "address"
        },
        {
          "internalType": "uint256",
          "name": "tokenId",
          "type": "uint256"
        }
      ],
      "name": "transferFrom",
      "outputs": [],
      "stateMutability": "nonpayable",
      "type": "function"
    }
  ],
  "bytecode": {
    "object": "0x60806040523480156200001157600080fd5b506040518060400160405280600781526020016626bcaa37b5b2b760c91b815250604051806040016040528060038152602001624d544b60e81b81525081600090816200005f91906200011c565b5060016200006e82826200011c565b505050620001e8565b634e487b7160e01b600052604160045260246000fd5b600181811c90821680620000a257607f821691505b602082108103620000c357634e487b7160e01b600052602260045260246000fd5b50919050565b601f8211156200011757600081815260208120601f850160051c81016020861015620000f25750805b601f850160051c820191505b818110156200011357828155600101620000fe565b5050505b505050565b81516001600160401b0381111562000138576200013862000077565b62000150816200014984546200008d565b84620000c9565b602080601f8311600181146200018857600084156200016f5750858301515b600019600386901b1c1916600185901b17855562000113565b600085815260208120601f198616915b82811015620001b95788860151825594840194600190910190840162000198565b5085821015620001d85787850151600019600388901b60f8161c191681555b5050505050600190811b01905550565b610f0f80620001f86000396000f3fe608060405234801561001057600080fd5b50600436106100ea5760003560e01c806370a082311161008c578063b88d4fde11610066578063b88d4fde146101e1578063bd85f55f146101f4578063c87b56dd14610208578063e985e9c51461021b57600080fd5b806370a08231146101a557806395d89b41146101c6578063a22cb465146101ce57600080fd5b8063095ea7b3116100c8578063095ea7b31461015757806323b872dd1461016c57806342842e0e1461017f5780636352211e1461019257600080fd5b806301ffc9a7146100ef57806306fdde0314610117578063081812fc1461012c575b600080fd5b6101026100fd366004610b7f565b61022e565b60405190151581526020015b60405180910390f35b61011f610280565b60405161010e9190610bec565b61013f61013a366004610bff565b610312565b6040516001600160a01b03909116815260200161010e565b61016a610165366004610c34565b61033b565b005b61016a61017a366004610c5e565b61034a565b61016a61018d366004610c5e565b6103da565b61013f6101a0366004610bff565b6103fa565b6101b86101b3366004610c9a565b610405565b60405190815260200161010e565b61011f61044d565b61016a6101dc366004610cb5565b61045c565b61016a6101ef366004610d07565b610467565b60408051602081019091526000815261011f565b61011f610216366004610bff565b61047f565b610102610229366004610de3565b6104f4565b60006001600160e01b031982166380ac58cd60e01b148061025f57506001600160e01b03198216635b5e139f60e01b145b8061027a57506301ffc9a760e01b6001600160e01b03198316145b92915050565b60606000805461028f90610e16565b80601f01602080910402602001604051908101604052809291908181526020018280546102bb90610e16565b80156103085780601f106102dd57610100808354040283529160200191610308565b820191906000526020600020905b8154815290600101906020018083116102eb57829003601f168201915b5050505050905090565b600061031d82610522565b506000828152600460205260409020546001600160a01b031661027a565b61034682823361055b565b5050565b6001600160a01b03821661037957604051633250574960e11b8152600060048201526024015b60405180910390fd5b6000610386838333610568565b9050836001600160a01b0316816001600160a01b0316146103d4576040516364283d7b60e01b81526001600160a01b0380861660048301526024820184905282166044820152606401610370565b50505050565b6103f583838360405180602001604052806000815250610467565b505050565b600061027a82610522565b60006001600160a01b038216610431576040516322718ad960e21b815260006004820152602401610370565b506001600160a01b031660009081526003602052604090205490565b60606001805461028f90610e16565b610346338383610661565b61047284848461034a565b6103d43385858585610700565b606061048a82610522565b5060006104a260408051602081019091526000815290565b905060008151116104c257604051806020016040528060008152506104ed565b806104cc8461082b565b6040516020016104dd929190610e50565b6040516020818303038152906040525b9392505050565b6001600160a01b03918216600090815260056020908152604080832093909416825291909152205460ff1690565b6000818152600260205260408120546001600160a01b03168061027a57604051637e27328960e01b815260048101849052602401610370565b6103f583838360016108be565b6000828152600260205260408120546001600160a01b0390811690831615610595576105958184866109c4565b6001600160a01b038116156105d3576105b26000856000806108be565b6001600160a01b038116600090815260036020526040902080546000190190555b6001600160a01b03851615610602576001600160a01b0385166000908152600360205260409020805460010190555b60008481526002602052604080822080546001600160a01b0319166001600160a01b0389811691821790925591518793918516917fddf252ad1be2c89b69c2b068fc378daa952ba7f163c4a11628f55a4df523b3ef91a4949350505050565b6001600160a01b03821661069357604051630b61174360e31b81526001600160a01b0383166004820152602401610370565b6001600160a01b03838116600081815260056020908152604080832094871680845294825291829020805460ff191686151590811790915591519182527f17307eab39ab6107e8899845ad3d59bd9653f200f220920489ca2b5937696c31910160405180910390a3505050565b6001600160a01b0383163b1561082457604051630a85bd0160e11b81526001600160a01b0384169063150b7a0290610742908890889087908790600401610e7f565b6020604051808303816000875af192505050801561077d575060408051601f3d908101601f1916820190925261077a91810190610ebc565b60015b6107e6573d8080156107ab576040519150601f19603f3d011682016040523d82523d6000602084013e6107b0565b606091505b5080516000036107de57604051633250574960e11b81526001600160a01b0385166004820152602401610370565b805181602001fd5b6001600160e01b03198116630a85bd0160e11b1461082257604051633250574960e11b81526001600160a01b0385166004820152602401610370565b505b5050505050565b6060600061083883610a28565b600101905060008167ffffffffffffffff81111561085857610858610cf1565b6040519080825280601f01601f191660200182016040528015610882576020820181803683370190505b5090508181016020015b600019016f181899199a1a9b1b9c1cb0b131b232b360811b600a86061a8153600a850494508461088c57509392505050565b80806108d257506001600160a01b03821615155b156109945760006108e284610522565b90506001600160a01b0383161580159061090e5750826001600160a01b0316816001600160a01b031614155b8015610921575061091f81846104f4565b155b1561094a5760405163a9fbf51f60e01b81526001600160a01b0384166004820152602401610370565b81156109925783856001600160a01b0316826001600160a01b03167f8c5be1e5ebec7d5bd14f71427d1e84f3dd0314c0f7b2291e5b200ac8c7c3b92560405160405180910390a45b505b5050600090815260046020526040902080546001600160a01b0319166001600160a01b0392909216919091179055565b6109cf838383610b00565b6103f5576001600160a01b0383166109fd57604051637e27328960e01b815260048101829052602401610370565b60405163177e802f60e01b81526001600160a01b038316600482015260248101829052604401610370565b60008072184f03e93ff9f4daa797ed6e38ed64bf6a1f0160401b8310610a675772184f03e93ff9f4daa797ed6e38ed64bf6a1f0160401b830492506040015b6d04ee2d6d415b85acef81000000008310610a93576d04ee2d6d415b85acef8100000000830492506020015b662386f26fc100008310610ab157662386f26fc10000830492506010015b6305f5e1008310610ac9576305f5e100830492506008015b6127108310610add57612710830492506004015b60648310610aef576064830492506002015b600a831061027a5760010192915050565b60006001600160a01b03831615801590610b5e5750826001600160a01b0316846001600160a01b03161480610b3a5750610b3a84846104f4565b80610b5e57506000828152600460205260409020546001600160a01b038481169116145b949350505050565b6001600160e01b031981168114610b7c57600080fd5b50565b600060208284031215610b9157600080fd5b81356104ed81610b66565b60005b83811015610bb7578181015183820152602001610b9f565b50506000910152565b60008151808452610bd8816020860160208601610b9c565b601f01601f19169290920160200192915050565b6020815260006104ed6020830184610bc0565b600060208284031215610c1157600080fd5b5035919050565b80356001600160a01b0381168114610c2f57600080fd5b919050565b60008060408385031215610c4757600080fd5b610c5083610c18565b946020939093013593505050565b600080600060608486031215610c7357600080fd5b610c7c84610c18565b9250610c8a60208501610c18565b9150604084013590509250925092565b600060208284031215610cac57600080fd5b6104ed82610c18565b60008060408385031215610cc857600080fd5b610cd183610c18565b915060208301358015158114610ce657600080fd5b809150509250929050565b634e487b7160e01b600052604160045260246000fd5b60008060008060808587031215610d1d57600080fd5b610d2685610c18565b9350610d3460208601610c18565b925060408501359150606085013567ffffffffffffffff80821115610d5857600080fd5b818701915087601f830112610d6c57600080fd5b813581811115610d7e57610d7e610cf1565b604051601f8201601f19908116603f01168101908382118183101715610da657610da6610cf1565b816040528281528a6020848701011115610dbf57600080fd5b82602086016020830137600060208483010152809550505050505092959194509250565b60008060408385031215610df657600080fd5b610dff83610c18565b9150610e0d60208401610c18565b90509250929050565b600181811c90821680610e2a57607f821691505b602082108103610e4a57634e487b7160e01b600052602260045260246000fd5b50919050565b60008351610e62818460208801610b9c565b835190830190610e76818360208801610b9c565b01949350505050565b6001600160a01b0385811682528416602082015260408101839052608060608201819052600090610eb290830184610bc0565b9695505050505050565b600060208284031215610ece57600080fd5b81516104ed81610b6656fea2646970667358221220b4efec995722e3a3c16690ace0d31898f7209d27e7b3dbd446df8f115bbd0dbb64736f6c63430008140033",
    "linkReferences": {}
  },
  "methodIdentifiers": {
    "approve(address,uint256)": "095ea7b3",
    "balanceOf(address)": "70a08231",
    "getApproved(uint256)": "081812fc",
    "isApprovedForAll(address,address)": "e985e9c5",
    "name()": "06fdde03",
    "ownerOf(uint256)": "6352211e",
    "safeTransferFrom(address,address,uint256)": "42842e0e",
    "safeTransferFrom(address,address,uint256,bytes)": "b88d4fde",
    "setApprovalForAll(address,bool)": "a22cb465",
    "supportsInterface(bytes4)": "01ffc9a7",
    "svg()": "bd85f55f",
    "symbol()": "95d89b41",
    "tokenURI(uint256)": "c87b56dd",
    "transferFrom(address,address,uint256)": "23b872dd"
  },
  "id": 14
}