{
  "abi": [
    {
      "inputs": [],
      "stateMutability": "nonpayable",
      "type": "constructor"
    },
    {
      "inputs": [
        {
          "internalType": "address",
          "name": "sender",
          "type": "address"
        },
        {
          "internalType": "uint256",
          "name": "tokenId",
          "type": "uint256"
        },
        {
          "internalType": "address",
          "name": "owner",
          "type": "address"
        }
      ],
      "name": "ERC721IncorrectOwner",
      "type": "error"
    },
    {
      "inputs": [
        {
          "internalType": "address",
          "name": "operator",
          "type": "address"
        },
        {
          "internalType": "uint256",
          "name": "tokenId",
          "type": "uint256"
        }
      ],
      "name": "ERC721InsufficientApproval",
      "type": "error"
    },
    {
      "inputs": [
        {
          "internalType": "address",
          "name": "approver",
          "type": "address"
        }
      ],
      "name": "ERC721InvalidApprover",
      "type": "error"
    },
    {
      "inputs": [
        {
          "internalType": "address",
          "name": "operator",
          "type": "address"
        }
      ],
      "name": "ERC721InvalidOperator",
      "type": "error"
    },
    {
      "inputs": [
        {
          "internalType": "address",
          "name": "owner",
          "type": "address"
        }
      ],
      "name": "ERC721InvalidOwner",
      "type": "error"
    },
    {
      "inputs": [
        {
          "internalType": "address",
          "name": "receiver",
          "type": "address"
        }
      ],
      "name": "ERC721InvalidReceiver",
      "type": "error"
    },
    {
      "inputs": [
        {
          "internalType": "address",
          "name": "sender",
          "type": "address"
        }
      ],
      "name": "ERC721InvalidSender",
      "type": "error"
    },
    {
      "inputs": [
        {
          "internalType": "uint256",
          "name": "tokenId",
          "type": "uint256"
        }
      ],
      "name": "ERC721NonexistentToken",
      "type": "error"
    },
    {
      "anonymous": false,
      "inputs": [
        {
          "indexed": true,
          "internalType": "address",
          "name": "owner",
          "type": "address"
        },
        {
          "indexed": true,
          "internalType": "address",
          "name": "approved",
          "type": "address"
        },
        {
          "indexed": true,
          "internalType": "uint256",
          "name": "tokenId",
          "type": "uint256"
        }
      ],
      "name": "Approval",
      "type": "event"
    },
    {
      "anonymous": false,
      "inputs": [
        {
          "indexed": true,
          "internalType": "address",
          "name": "owner",
          "type": "address"
        },
        {
          "indexed": true,
          "internalType": "address",
          "name": "operator",
          "type": "address"
        },
        {
          "indexed": false,
          "internalType": "bool",
          "name": "approved",
          "type": "bool"
        }
      ],
      "name": "ApprovalForAll",
      "type": "event"
    },
    {
      "anonymous": false,
      "inputs": [
        {
          "indexed": true,
          "internalType": "address",
          "name": "from",
          "type": "address"
        },
        {
          "indexed": true,
          "internalType": "address",
          "name": "to",
          "type": "address"
        },
        {
          "indexed": true,
          "internalType": "uint256",
          "name": "tokenId",
          "type": "uint256"
        }
      ],
      "name": "Transfer",
      "type": "event"
    },
    {
      "inputs": [
        {
          "internalType": "address",
          "name": "to",
          "type": "address"
        },
        {
          "internalType": "uint256",
          "name": "tokenId",
          "type": "uint256"
        }
      ],
      "name": "approve",
      "outputs": [],
      "stateMutability": "nonpayable",
      "type": "function"
    },
    {
      "inputs": [
        {
          "internalType": "address",
          "name": "owner",
          "type": "address"
        }
      ],
      "name": "balanceOf",
      "outputs": [
        {
          "internalType": "uint256",
          "name": "",
          "type": "uint256"
        }
      ],
      "stateMutability": "view",
      "type": "function"
    },
    {
      "inputs": [
        {
          "internalType": "uint256",
          "name": "tokenId",
          "type": "uint256"
        }
      ],
      "name": "burn",
      "outputs": [],
      "stateMutability": "nonpayable",
      "type": "function"
    },
    {
      "inputs": [
        {
          "internalType": "uint256",
          "name": "tokenId",
          "type": "uint256"
        }
      ],
      "name": "getApproved",
      "outputs": [
        {
          "internalType": "address",
          "name": "",
          "type": "address"
        }
      ],
      "stateMutability": "view",
      "type": "function"
    },
    {
      "inputs": [
        {
          "internalType": "uint256",
          "name": "tokenId",
          "type": "uint256"
        }
      ],
      "name": "getSvg",
      "outputs": [
        {
          "internalType": "string",
          "name": "",
          "type": "string"
        }
      ],
      "stateMutability": "nonpayable",
      "type": "function"
    },
    {
      "inputs": [
        {
          "internalType": "address",
          "name": "artContractAddress",
          "type": "address"
        }
      ],
      "name": "initialize",
      "outputs": [],
      "stateMutability": "nonpayable",
      "type": "function"
    },
    {
      "inputs": [
        {
          "internalType": "address",
          "name": "owner",
          "type": "address"
        },
        {
          "internalType": "address",
          "name": "operator",
          "type": "address"
        }
      ],
      "name": "isApprovedForAll",
      "outputs": [
        {
          "internalType": "bool",
          "name": "",
          "type": "bool"
        }
      ],
      "stateMutability": "view",
      "type": "function"
    },
    {
      "inputs": [
        {
          "internalType": "uint256",
          "name": "shapesMask",
          "type": "uint256"
        },
        {
          "internalType": "uint256",
          "name": "numShapes",
          "type": "uint256"
        }
      ],
      "name": "mint",
      "outputs": [
        {
          "internalType": "string",
          "name": "",
          "type": "string"
        }
      ],
      "stateMutability": "nonpayable",
      "type": "function"
    },
    {
      "inputs": [
        {
          "internalType": "address",
          "name": "to",
          "type": "address"
        },
        {
          "internalType": "uint256",
          "name": "shapesMask",
          "type": "uint256"
        },
        {
          "internalType": "uint256",
          "name": "numShapes",
          "type": "uint256"
        }
      ],
      "name": "mintTo",
      "outputs": [
        {
          "internalType": "string",
          "name": "",
          "type": "string"
        }
      ],
      "stateMutability": "nonpayable",
      "type": "function"
    },
    {
      "inputs": [],
      "name": "name",
      "outputs": [
        {
          "internalType": "string",
          "name": "",
          "type": "string"
        }
      ],
      "stateMutability": "view",
      "type": "function"
    },
    {
      "inputs": [
        {
          "internalType": "uint256",
          "name": "tokenId",
          "type": "uint256"
        }
      ],
      "name": "ownerOf",
      "outputs": [
        {
          "internalType": "address",
          "name": "",
          "type": "address"
        }
      ],
      "stateMutability": "view",
      "type": "function"
    },
    {
      "inputs": [
        {
          "internalType": "address",
          "name": "to",
          "type": "address"
        },
        {
          "internalType": "uint256",
          "name": "shapesMask",
          "type": "uint256"
        },
        {
          "internalType": "uint256",
          "name": "numShapes",
          "type": "uint256"
        }
      ],
      "name": "safeMint",
      "outputs": [
        {
          "internalType": "string",
          "name": "",
          "type": "string"
        }
      ],
      "stateMutability": "nonpayable",
      "type": "function"
    },
    {
      "inputs": [
        {
          "internalType": "address",
          "name": "from",
          "type": "address"
        },
        {
          "internalType": "address",
          "name": "to",
          "type": "address"
        },
        {
          "internalType": "uint256",
          "name": "tokenId",
          "type": "uint256"
        }
      ],
      "name": "safeTransferFrom",
      "outputs": [],
      "stateMutability": "nonpayable",
      "type": "function"
    },
    {
      "inputs": [
        {
          "internalType": "address",
          "name": "from",
          "type": "address"
        },
        {
          "internalType": "address",
          "name": "to",
          "type": "address"
        },
        {
          "internalType": "uint256",
          "name": "tokenId",
          "type": "uint256"
        },
        {
          "internalType": "bytes",
          "name": "data",
          "type": "bytes"
        }
      ],
      "name": "safeTransferFrom",
      "outputs": [],
      "stateMutability": "nonpayable",
      "type": "function"
    },
    {
      "inputs": [
        {
          "internalType": "address",
          "name": "operator",
          "type": "address"
        },
        {
          "internalType": "bool",
          "name": "approved",
          "type": "bool"
        }
      ],
      "name": "setApprovalForAll",
      "outputs": [],
      "stateMutability": "nonpayable",
      "type": "function"
    },
    {
      "inputs": [
        {
          "internalType": "bytes4",
          "name": "interfaceId",
          "type": "bytes4"
        }
      ],
      "name": "supportsInterface",
      "outputs": [
        {
          "internalType": "bool",
          "name": "",
          "type": "bool"
        }
      ],
      "stateMutability": "view",
      "type": "function"
    },
    {
      "inputs": [],
      "name": "symbol",
      "outputs": [
        {
          "internalType": "string",
          "name": "",
          "type": "string"
        }
      ],
      "stateMutability": "view",
      "type": "function"
    },
    {
      "inputs": [
        {
          "internalType": "uint256",
          "name": "tokenId",
          "type": "uint256"
        }
      ],
      "name": "tokenURI",
      "outputs": [
        {
          "internalType": "string",
          "name": "",
          "type": "string"
        }
      ],
      "stateMutability": "view",
      "type": "function"
    },
    {
      "inputs": [
        {
          "internalType": "address",
          "name": "from",
          "type": "address"
        },
        {
          "internalType": "address",
          "name": "to",
          "type": "address"
        },
        {
          "internalType": "uint256",
          "name": "tokenId",
          "type": "uint256"
        }
      ],
      "name": "transferFrom",
      "outputs": [],
      "stateMutability": "nonpayable",
      "type": "function"
    }
  ],
  "bytecode": {
    "object": "0x60806040523480156200001157600080fd5b506040518060400160405280600781526020016611dbd9da13919560ca1b8152506040518060400160405280600481526020016308e9e8e960e31b81525081600090816200006091906200011d565b5060016200006f82826200011d565b505050620001e9565b634e487b7160e01b600052604160045260246000fd5b600181811c90821680620000a357607f821691505b602082108103620000c457634e487b7160e01b600052602260045260246000fd5b50919050565b601f8211156200011857600081815260208120601f850160051c81016020861015620000f35750805b601f850160051c820191505b818110156200011457828155600101620000ff565b5050505b505050565b81516001600160401b0381111562000139576200013962000078565b62000151816200014a84546200008e565b84620000ca565b602080601f831160018114620001895760008415620001705750858301515b600019600386901b1c1916600185901b17855562000114565b600085815260208120601f198616915b82811015620001ba5788860151825594840194600190910190840162000199565b5085821015620001d95787850151600019600388901b60f8161c191681555b5050505050600190811b01905550565b61100a80620001f96000396000f3fe608060405234801561001057600080fd5b50600436106101215760003560e01c806342966c68116100ad578063b0dc78fa11610071578063b0dc78fa1461026f578063b88d4fde14610290578063c4d66de8146102a3578063c87b56dd146102b1578063e985e9c5146102c457600080fd5b806342966c681461020f5780636352211e1461022057806370a082311461023357806395d89b4114610254578063a22cb4651461025c57600080fd5b80631b2ef1ca116100f45780631b2ef1ca146101a357806323b872dd146101c557806324eeedf6146101d85780632baf2acb146101d857806342842e0e146101fc57600080fd5b806301ffc9a71461012657806306fdde031461014e578063081812fc14610163578063095ea7b31461018e575b600080fd5b610139610134366004610c25565b6102d7565b60405190151581526020015b60405180910390f35b610156610329565b6040516101459190610c92565b610176610171366004610ca5565b6103bb565b6040516001600160a01b039091168152602001610145565b6101a161019c366004610cda565b6103e4565b005b6101566101b1366004610d04565b505060408051602081019091526000815290565b6101a16101d3366004610d26565b6103f3565b6101566101e6366004610d62565b6040805160208101909152600081529392505050565b6101a161020a366004610d26565b610483565b6101a161021d366004610ca5565b50565b61017661022e366004610ca5565b6104a3565b610246610241366004610d95565b6104ae565b604051908152602001610145565b6101566104f6565b6101a161026a366004610db0565b610505565b61015661027d366004610ca5565b5060408051602081019091526000815290565b6101a161029e366004610e02565b610510565b6101a161021d366004610d95565b6101566102bf366004610ca5565b610528565b6101396102d2366004610ede565b61059d565b60006001600160e01b031982166380ac58cd60e01b148061030857506001600160e01b03198216635b5e139f60e01b145b8061032357506301ffc9a760e01b6001600160e01b03198316145b92915050565b60606000805461033890610f11565b80601f016020809104026020016040519081016040528092919081815260200182805461036490610f11565b80156103b15780601f10610386576101008083540402835291602001916103b1565b820191906000526020600020905b81548152906001019060200180831161039457829003601f168201915b5050505050905090565b60006103c6826105cb565b506000828152600460205260409020546001600160a01b0316610323565b6103ef828233610604565b5050565b6001600160a01b03821661042257604051633250574960e11b8152600060048201526024015b60405180910390fd5b600061042f838333610611565b9050836001600160a01b0316816001600160a01b03161461047d576040516364283d7b60e01b81526001600160a01b0380861660048301526024820184905282166044820152606401610419565b50505050565b61049e83838360405180602001604052806000815250610510565b505050565b6000610323826105cb565b60006001600160a01b0382166104da576040516322718ad960e21b815260006004820152602401610419565b506001600160a01b031660009081526003602052604090205490565b60606001805461033890610f11565b6103ef33838361070a565b61051b8484846103f3565b61047d33858585856107a9565b6060610533826105cb565b50600061054b60408051602081019091526000815290565b9050600081511161056b5760405180602001604052806000815250610596565b80610575846108d4565b604051602001610586929190610f4b565b6040516020818303038152906040525b9392505050565b6001600160a01b03918216600090815260056020908152604080832093909416825291909152205460ff1690565b6000818152600260205260408120546001600160a01b03168061032357604051637e27328960e01b815260048101849052602401610419565b61049e8383836001610967565b6000828152600260205260408120546001600160a01b039081169083161561063e5761063e818486610a6d565b6001600160a01b0381161561067c5761065b600085600080610967565b6001600160a01b038116600090815260036020526040902080546000190190555b6001600160a01b038516156106ab576001600160a01b0385166000908152600360205260409020805460010190555b60008481526002602052604080822080546001600160a01b0319166001600160a01b0389811691821790925591518793918516917fddf252ad1be2c89b69c2b068fc378daa952ba7f163c4a11628f55a4df523b3ef91a4949350505050565b6001600160a01b03821661073c57604051630b61174360e31b81526001600160a01b0383166004820152602401610419565b6001600160a01b03838116600081815260056020908152604080832094871680845294825291829020805460ff191686151590811790915591519182527f17307eab39ab6107e8899845ad3d59bd9653f200f220920489ca2b5937696c31910160405180910390a3505050565b6001600160a01b0383163b156108cd57604051630a85bd0160e11b81526001600160a01b0384169063150b7a02906107eb908890889087908790600401610f7a565b6020604051808303816000875af1925050508015610826575060408051601f3d908101601f1916820190925261082391810190610fb7565b60015b61088f573d808015610854576040519150601f19603f3d011682016040523d82523d6000602084013e610859565b606091505b50805160000361088757604051633250574960e11b81526001600160a01b0385166004820152602401610419565b805181602001fd5b6001600160e01b03198116630a85bd0160e11b146108cb57604051633250574960e11b81526001600160a01b0385166004820152602401610419565b505b5050505050565b606060006108e183610ad1565b600101905060008167ffffffffffffffff81111561090157610901610dec565b6040519080825280601f01601f19166020018201604052801561092b576020820181803683370190505b5090508181016020015b600019016f181899199a1a9b1b9c1cb0b131b232b360811b600a86061a8153600a850494508461093557509392505050565b808061097b57506001600160a01b03821615155b15610a3d57600061098b846105cb565b90506001600160a01b038316158015906109b75750826001600160a01b0316816001600160a01b031614155b80156109ca57506109c8818461059d565b155b156109f35760405163a9fbf51f60e01b81526001600160a01b0384166004820152602401610419565b8115610a3b5783856001600160a01b0316826001600160a01b03167f8c5be1e5ebec7d5bd14f71427d1e84f3dd0314c0f7b2291e5b200ac8c7c3b92560405160405180910390a45b505b5050600090815260046020526040902080546001600160a01b0319166001600160a01b0392909216919091179055565b610a78838383610ba9565b61049e576001600160a01b038316610aa657604051637e27328960e01b815260048101829052602401610419565b60405163177e802f60e01b81526001600160a01b038316600482015260248101829052604401610419565b60008072184f03e93ff9f4daa797ed6e38ed64bf6a1f0160401b8310610b105772184f03e93ff9f4daa797ed6e38ed64bf6a1f0160401b830492506040015b6d04ee2d6d415b85acef81000000008310610b3c576d04ee2d6d415b85acef8100000000830492506020015b662386f26fc100008310610b5a57662386f26fc10000830492506010015b6305f5e1008310610b72576305f5e100830492506008015b6127108310610b8657612710830492506004015b60648310610b98576064830492506002015b600a83106103235760010192915050565b60006001600160a01b03831615801590610c075750826001600160a01b0316846001600160a01b03161480610be35750610be3848461059d565b80610c0757506000828152600460205260409020546001600160a01b038481169116145b949350505050565b6001600160e01b03198116811461021d57600080fd5b600060208284031215610c3757600080fd5b813561059681610c0f565b60005b83811015610c5d578181015183820152602001610c45565b50506000910152565b60008151808452610c7e816020860160208601610c42565b601f01601f19169290920160200192915050565b6020815260006105966020830184610c66565b600060208284031215610cb757600080fd5b5035919050565b80356001600160a01b0381168114610cd557600080fd5b919050565b60008060408385031215610ced57600080fd5b610cf683610cbe565b946020939093013593505050565b60008060408385031215610d1757600080fd5b50508035926020909101359150565b600080600060608486031215610d3b57600080fd5b610d4484610cbe565b9250610d5260208501610cbe565b9150604084013590509250925092565b600080600060608486031215610d7757600080fd5b610d8084610cbe565b95602085013595506040909401359392505050565b600060208284031215610da757600080fd5b61059682610cbe565b60008060408385031215610dc357600080fd5b610dcc83610cbe565b915060208301358015158114610de157600080fd5b809150509250929050565b634e487b7160e01b600052604160045260246000fd5b60008060008060808587031215610e1857600080fd5b610e2185610cbe565b9350610e2f60208601610cbe565b925060408501359150606085013567ffffffffffffffff80821115610e5357600080fd5b818701915087601f830112610e6757600080fd5b813581811115610e7957610e79610dec565b604051601f8201601f19908116603f01168101908382118183101715610ea157610ea1610dec565b816040528281528a6020848701011115610eba57600080fd5b82602086016020830137600060208483010152809550505050505092959194509250565b60008060408385031215610ef157600080fd5b610efa83610cbe565b9150610f0860208401610cbe565b90509250929050565b600181811c90821680610f2557607f821691505b602082108103610f4557634e487b7160e01b600052602260045260246000fd5b50919050565b60008351610f5d818460208801610c42565b835190830190610f71818360208801610c42565b01949350505050565b6001600160a01b0385811682528416602082015260408101839052608060608201819052600090610fad90830184610c66565b9695505050505050565b600060208284031215610fc957600080fd5b815161059681610c0f56fea26469706673582212204d7f7a77b01ab81690c81a765d484ce88d21476517e56c4470e38b9a733ee6da64736f6c63430008140033",
    "linkReferences": {}
  },
  "methodIdentifiers": {
    "approve(address,uint256)": "095ea7b3",
    "balanceOf(address)": "70a08231",
    "burn(uint256)": "42966c68",
    "getApproved(uint256)": "081812fc",
    "getSvg(uint256)": "b0dc78fa",
    "initialize(address)": "c4d66de8",
    "isApprovedForAll(address,address)": "e985e9c5",
    "mint(uint256,uint256)": "1b2ef1ca",
    "mintTo(address,uint256,uint256)": "2baf2acb",
    "name()": "06fdde03",
    "ownerOf(uint256)": "6352211e",
    "safeMint(address,uint256,uint256)": "24eeedf6",
    "safeTransferFrom(address,address,uint256)": "42842e0e",
    "safeTransferFrom(address,address,uint256,bytes)": "b88d4fde",
    "setApprovalForAll(address,bool)": "a22cb465",
    "supportsInterface(bytes4)": "01ffc9a7",
    "symbol()": "95d89b41",
    "tokenURI(uint256)": "c87b56dd",
    "transferFrom(address,address,uint256)": "23b872dd"
  },
  "id": 14
}